:100000000C9478000C9499000C9499000C9499002D
:100010000C9499000C94770C0C944C0C0C94990053
:100020000C9499000C9499000C9499000C949900EC
:100030000C9499000C9499000C9499000C949900DC
:100040000C9499000C9499000C9499000C949900CC
:100050000C9499000C9499000C9499000C949900BC
:100060000C9499000C9499000C9499000C949900AC
:100070000C9499000C9499000C9499000C9499009C
:100080000C9499000C9499000C9499000C94801A8B
:100090000C9499000C9499000C9499000C9499007C
:1000A0000C9499000C9499000C9499000C9499006C
:1000B0000C9499000C94BD1A0C9499000C9499001E
:1000C0000C9499000C9499000C9499000C94446839
:1000D0000C9499000C9499000C9499000C9499003C
:1000E0000C9499006364696E6F70737578585B0047
:1000F00011241FBECFEFD1E2DEBFCDBF00E00CBFA9
:1001000013E0A0E0B2E0E4ECFAEE00E00BBF02C0C6
:1001100007900D92A034B107D9F715E0A0E4B3E041
:1001200001C01D92AF30B107E1F70E94486A0C94FC
:1001300060750C9400000F931F93CF93DF93CDB79E
:10014000DEB7C057D0400FB6F894DEBF0FBECDBFAC
:1001500080E090E0A0E8BFE389839A83AB83BC830F
:1001600069817A818B819C8126E636E646E655E4F4
:100170000E941A6FDC01CB018D839E83AF83B88709
:1001800011E06D817E818F81988520E030E040E82C
:100190005FE30E94CC6D88230CF010E0112329F05E
:1001A00081E090E09A87898746C011E06D817E8169
:1001B0008F81988520E03FEF4FE757E40E94166F4C
:1001C00018160CF010E0112361F169817A818B819E
:1001D0009C8120E030E040E251E40E941A6FDC0193
:1001E000CB01BC01CD010E94386EDC01CB019A87A6
:1001F000898712C080E791E09C878B878B859C85DF
:100200008C01C8010197F1F78C011C870B87898548
:100210009A8501979A87898789859A85009751F7EA
:1002200017C06D817E818F8198850E94386EDC01B8
:10023000CB019A87898789859A859E878D878D8549
:100240009E858C01F8013197F1F78F011E870D878C
:1002500088E290E028E230E0F90120812E7FFC0165
:10026000208388E290E028E230E0F90120812D7FB0
:10027000FC01208388E290E020E3FC01208388E2F7
:1002800090E028E230E0F90120812460FC01208325
:1002900080E090E0A0EAB0E48F87988BA98BBA8BBE
:1002A0006F85788989899A8926E636E646E655E497
:1002B0000E941A6FDC01CB018B8B9C8BAD8BBE8BAC
:1002C00011E06B897C898D899E8920E030E040E8CF
:1002D0005FE30E94CC6D88230CF010E0112329F01D
:1002E00081E090E0988F8F8B46C011E06B897C890C
:1002F0008D899E8920E03FEF4FE757E40E94166FFB
:1003000018160CF010E0112361F16F857889898946
:100310009A8920E030E040E251E40E941A6FDC014B
:10032000CB01BC01CD010E94386EDC01CB01988F5E
:100330008F8B12C080E791E09A8F898F898D9A8D7B
:100340008C01C8010197F1F78C011A8F098F8F89F1
:10035000988D0197988F8F8B8F89988D009751F783
:1003600017C06B897C898D899E890E94386EDC015B
:10037000CB01988F8F8B8F89988D9C8F8B8F8B8DD6
:100380009C8D8C01F8013197F1F78F011C8F0B8F39
:1003900088E290E028E230E0F90120812B7FFC0127
:1003A000208380E090E0A0E8BFE38D8F9E8FAF8F29
:1003B000B8A36D8D7E8D8F8D98A126E636E646E634
:1003C00055E40E941A6FDC01CB0189A39AA3ABA369
:1003D000BCA311E069A17AA18BA19CA120E030E02F
:1003E00040E85FE30E94CC6D88230CF010E01123FD
:1003F00029F081E090E09EA38DA346C011E069A1A1
:100400007AA18BA19CA120E03FEF4FE757E40E9427
:10041000166F18160CF010E0112361F16D8D7E8DB2
:100420008F8D98A120E030E040E251E40E941A6FE5
:10043000DC01CB01BC01CD010E94386EDC01CB0197
:100440009EA38DA312C080E791E098A78FA38FA1F0
:1004500098A58C01C8010197F1F78C0118A70FA38B
:100460008DA19EA101979EA38DA38DA19EA1009712
:1004700051F717C069A17AA18BA19CA10E94386E87
:10048000DC01CB019EA38DA38DA19EA19AA789A774
:1004900089A59AA58C01F8013197F1F78F011AA768
:1004A00009A788E290E028E230E0F90120812E7F60
:1004B000FC01208388E290E028E230E0F90120810D
:1004C0002D7FFC01208388E290E020E3FC01208363
:1004D00088E290E028E230E0F90120812460FC010C
:1004E000208380E090E0A0EAB0E48BA79CA7ADA7B2
:1004F000BEA76BA57CA58DA59EA526E636E646E69D
:1005000055E40E941A6FDC01CB018FA798ABA9AB11
:10051000BAAB11E06FA578A989A99AA920E030E0CB
:1005200040E85FE30E94CC6D88230CF010E01123BB
:1005300029F081E090E09CAB8BAB46C011E06FA549
:1005400078A989A99AA920E03FEF4FE757E40E94D4
:10055000166F18160CF010E0112361F16BA57CA545
:100560008DA59EA520E030E040E251E40E941A6F84
:10057000DC01CB01BC01CD010E94386EDC01CB0156
:100580009CAB8BAB12C080E791E09EAB8DAB8DA98D
:100590009EA98C01C8010197F1F78C011EAB0DAB30
:1005A0008BA99CA901979CAB8BAB8BA99CA90097AD
:1005B00051F717C06FA578A989A99AA90E94386E2A
:1005C000DC01CB019CAB8BAB8BA99CA998AF8FAB0B
:1005D0008FA998AD8C01F8013197F1F78F0118AF11
:1005E0000FAB88E290E028E230E0F90120812B7F18
:1005F000FC01208380E090E0A0E8BFE389AF9AAFE0
:10060000ABAFBCAF69AD7AAD8BAD9CAD26E636E63F
:1006100046E655E40E941A6FDC01CB019E01235C83
:100620003F4FF90180839183A283B38311E0CE0110
:10063000CD96FC01608171818281938120E030E060
:1006400040E85FE30E94CC6D88230CF010E011239A
:1006500049F0CE018F5B9F4F21E030E0FC013183F8
:1006600020836EC011E0CE01CD96FC0160817181C6
:100670008281938120E03FEF4FE757E40E94166F9D
:1006800018160CF010E0112309F449C069AD7AADD9
:100690008BAD9CAD20E030E040E251E40E941A6F47
:1006A000DC01CB018E010F5B1F4FBC01CD010E940D
:1006B000386EDC01CB01F8019183808327C0CE0125
:1006C0008D5B9F4F20E731E0FC0131832083CE0119
:1006D0008D5B9F4FFC01808191818C01C801019746
:1006E000F1F78C01CE018D5B9F4FFC0111830083DC
:1006F000CE018F5B9F4F9E012F5B3F4FF901208101
:10070000318121503040FC0131832083CE018F5B49
:100710009F4FFC0180819181009789F62EC08E0148
:100720000F5B1F4FCE01CD96FC01608171818281EC
:1007300093810E94386EDC01CB01F80191838083A4
:10074000CE018B5B9F4F9E012F5B3F4FF9012081B4
:100750003181FC0131832083CE018B5B9F4FFC01F3
:10076000808191818C01C8010197F1F78C01CE0144
:100770008B5B9F4FFC011183008388E290E028E2AD
:1007800030E0F90120812E7FFC01208388E290E097
:1007900028E230E0F90120812D7FFC01208388E2EE
:1007A00090E020E3FC01208388E290E028E230E042
:1007B000F90120812460FC0120839E01295B3F4FC9
:1007C00080E090E0A0EAB0E4F90180839183A28305
:1007D000B3838E01055B1F4FCE01895B9F4FFC01E8
:1007E000608171818281938126E636E646E655E492
:1007F0000E941A6FDC01CB01F80180839183A283F0
:10080000B383CE01855B9F4F11E0FC016081718154
:100810008281938120E030E040E85FE30E94CC6D6C
:1008200088230CF010E0112349F0CE01815B9F4F2B
:1008300021E030E0FC013183208374C0CE01855B70
:100840009F4F11E0FC01608171818281938120E0E2
:100850003FEF4FE757E40E94166F18160CF010E0B8
:10086000112309F44DC0CE01895B9F4FFC016081CB
:1008700071818281938120E030E040E251E40E9466
:100880001A6FDC01CB018E01015B1F4FBC01CD0152
:100890000E94386EDC01CB01F8019183808327C070
:1008A000CE018F5A9F4F20E731E0FC013183208336
:1008B000CE018F5A9F4FFC01808191818C01C8012C
:1008C0000197F1F78C01CE018F5A9F4FFC011183E4
:1008D0000083CE01815B9F4F9E01215B3F4FF90159
:1008E0002081318121503040FC0131832083CE01B1
:1008F000815B9F4FFC0180819181009789F62FC019
:100900008E01015B1F4FCE01855B9F4FFC01608113
:100910007181828193810E94386EDC01CB01F801E4
:1009200091838083CE018D5A9F4F9E01215B3F4F63
:10093000F90120813181FC0131832083CE018D5A60
:100940009F4FFC01808191818C01C8010197F1F7D3
:100950008C01CE018D5A9F4FFC011183008388E2E8
:1009600090E028E230E0F90120812B7FFC01208318
:100970009E012B5A3F4F80E090E0A0E8BFE3F901D1
:1009800080839183A283B3838E01075A1F4FCE01C8
:100990008B5A9F4FFC01608171818281938126E691
:1009A00036E646E655E40E941A6FDC01CB01F801F9
:1009B00080839183A283B383CE01875A9F4F11E036
:1009C000FC01608171818281938120E030E040E808
:1009D0005FE30E94CC6D88230CF010E0112349F0F6
:1009E000CE01835A9F4F21E030E0FC013183208308
:1009F00074C0CE01875A9F4F11E0FC016081718164
:100A00008281938120E03FEF4FE757E40E94166F09
:100A100018160CF010E0112309F44DC0CE018B5ACA
:100A20009F4FFC01608171818281938120E030E0E1
:100A300040E251E40E941A6FDC01CB018E01035A9F
:100A40001F4FBC01CD010E94386EDC01CB01F801C3
:100A50009183808327C0CE01815A9F4F20E731E0E8
:100A6000FC0131832083CE01815A9F4FFC0180819C
:100A700091818C01C8010197F1F78C01CE01815A57
:100A80009F4FFC0111830083CE01835A9F4F9E012B
:100A9000235A3F4FF9012081318121503040FC0120
:100AA00031832083CE01835A9F4FFC018081918145
:100AB000009789F62FC08E01035A1F4FCE01875A27
:100AC0009F4FFC0160817181828193810E94386E09
:100AD000DC01CB01F80191838083CE018F599F4FB8
:100AE0009E01235A3F4FF90120813181FC0131835E
:100AF0002083CE018F599F4FFC01808191818C0111
:100B0000C8010197F1F78C01CE018F599F4FFC016D
:100B10001183008388E290E028E230E0F90120812F
:100B20002E7FFC01208388E290E028E230E0F9018A
:100B300020812D7FFC01208388E290E020E2FC01EF
:100B4000208388E290E028E230E0F90120812460EF
:100B5000FC0120839E012D593F4F80E090E0A0EAE8
:100B6000B0E4F90180839183A283B3838E01095994
:100B70001F4FCE018D599F4FFC0160817181828191
:100B8000938126E636E646E655E40E941A6FDC01BC
:100B9000CB01F80180839183A283B383CE0189596D
:100BA0009F4F11E0FC01608171818281938120E07F
:100BB00030E040E85FE30E94CC6D88230CF010E049
:100BC000112349F0CE0185599F4F21E030E0FC010F
:100BD0003183208374C0CE0189599F4F11E0FC01FD
:100BE000608171818281938120E03FEF4FE757E47C
:100BF0000E94166F18160CF010E0112309F44DC076
:100C0000CE018D599F4FFC0160817181828193815A
:100C100020E030E040E251E40E941A6FDC01CB0199
:100C20008E0105591F4FBC01CD010E94386EDC01B9
:100C3000CB01F8019183808327C0CE0183599F4F58
:100C400020E731E0FC0131832083CE0183599F4F9F
:100C5000FC01808191818C01C8010197F1F78C0121
:100C6000CE0183599F4FFC0111830083CE0185592A
:100C70009F4F9E0125593F4FF9012081318121501D
:100C80003040FC0131832083CE0185599F4FFC0108
:100C900080819181009789F62FC08E0105591F4FE1
:100CA000CE0189599F4FFC016081718182819381BE
:100CB0000E94386EDC01CB01F80191838083CE0164
:100CC00081599F4F9E0125593F4FF9012081318164
:100CD000FC0131832083CE0181599F4FFC0180812B
:100CE00091818C01C8010197F1F78C01CE018159E6
:100CF0009F4FFC011183008388E290E028E230E0FE
:100D0000F90120812B7FFC012083C059DF4F0FB6F2
:100D1000F894DEBF0FBECDBFDF91CF911F910F9131
:100D200008950F931F93CF93DF93CDB7DEB72E9720
:100D30000FB6F894DEBF0FBECDBF80E090E0A0E814
:100D4000BFE389839A83AB83BC8369817A818B817A
:100D50009C8126E636E646E655E40E941A6FDC01E1
:100D6000CB018D839E83AF83B88711E06D817E8137
:100D70008F81988520E030E040E85FE30E94CC6DF1
:100D800088230CF010E0112329F081E090E09A878D
:100D9000898746C011E06D817E818F81988520E032
:100DA0003FEF4FE757E40E94166F18160CF010E063
:100DB000112361F169817A818B819C8120E030E08F
:100DC00040E251E40E941A6FDC01CB01BC01CD016D
:100DD0000E94386EDC01CB019A87898712C080E7B8
:100DE00091E09C878B878B859C858C01C80101973E
:100DF000F1F78C011C870B8789859A8501979A8763
:100E0000898789859A85009751F717C06D817E8102
:100E10008F8198850E94386EDC01CB019A87898783
:100E200089859A859E878D878D859E858C01C801D1
:100E30000197F1F78C011E870D8788E20E94370722
:100E400081E00E94370786E00E9437078EE00E940B
:100E5000370780E80E9437072E960FB6F894DEBF5A
:100E60000FBECDBFDF91CF911F910F9108950F93CA
:100E70001F93CF93DF93CDB7DEB76E970FB6F8947D
:100E8000DEBF0FBECDBF8E8F8E8D89838981807F1F
:100E9000898388E290E028E230E0F90120812F7018
:100EA000FC01208388E290E028E230E0F901308103
:100EB0002981232BFC01208388E290E028E230E0A6
:100EC000F90120812E7FFC01208388E290E028E256
:100ED00030E0F90120812D7FFC01208388E290E041
:100EE00028E230E0F90120812460FC01208380E0C9
:100EF00090E0A0EAB0E48A839B83AC83BD836A81DF
:100F00007B818C819D8126E636E646E655E40E948B
:100F10001A6FDC01CB018E839F83A887B98711E00C
:100F20006E817F818885998520E030E040E85FE32D
:100F30000E94CC6D88230CF010E0112329F081E091
:100F400090E09B878A8746C011E06E817F8188850B
:100F5000998520E03FEF4FE757E40E94166F18167F
:100F60000CF010E0112361F16A817B818C819D81FD
:100F700020E030E040E251E40E941A6FDC01CB0136
:100F8000BC01CD010E94386EDC01CB019B878A87B2
:100F900012C080E791E09D878C878C859D858C01B0
:100FA000C8010197F1F78C011D870C878A859B8505
:100FB00001979B878A878A859B85009751F717C081
:100FC0006E817F81888599850E94386EDC01CB0116
:100FD0009B878A878A859B859F878E878E859F853D
:100FE0008C01F8013197F1F78F011F870E8788E296
:100FF00090E028E230E0F90120812B7FFC01208382
:101000008E8D8F708E8F8E8D8295807F8E8F88E2F1
:1010100090E028E230E0F90120812F70FC0120836C
:1010200088E290E028E230E0F90130812E8D232B18
:10103000FC01208388E290E028E230E0F901208181
:101040002E7FFC01208388E290E028E230E0F90165
:1010500020812D7FFC01208388E290E028E230E0AF
:10106000F90120812460FC01208380E090E0A0EA67
:10107000B0E4888B998BAA8BBB8B688979898A8924
:101080009B8926E636E646E655E40E941A6FDC01A7
:10109000CB018C8B9D8BAE8BBF8B11E06C897D89D6
:1010A0008E899F8920E030E040E85FE30E94CC6DAC
:1010B00088230CF010E0112329F081E090E0998F53
:1010C000888F46C011E06C897D898E899F8920E0D8
:1010D0003FEF4FE757E40E94166F18160CF010E030
:1010E000112361F1688979898A899B8920E030E040
:1010F00040E251E40E941A6FDC01CB01BC01CD013A
:101100000E94386EDC01CB01998F888F12C080E776
:1011100091E09B8F8A8F8A8D9B8D8C01C8010197EE
:10112000F1F78C011B8F0A8F888D998D0197998F0C
:10113000888F888D998D009751F717C06C897D89AC
:101140008E899F890E94386EDC01CB01998F888F30
:10115000888D998D9D8F8C8F8C8D9D8D8C01F80144
:101160003197F1F78F011D8F0C8F88E290E028E214
:1011700030E0F90120812B7FFC0120836E960FB6B1
:10118000F894DEBF0FBECDBFDF91CF911F910F91BD
:1011900008950F931F93CF93DF93CDB7DEB76E976C
:1011A0000FB6F894DEBF0FBECDBF8E8F8E8D8983B4
:1011B0008981807F898388E290E028E230E0F9012C
:1011C00020812F70FC01208388E290E028E230E04B
:1011D000F90130812981232BFC01208388E290E0F2
:1011E00028E230E0F90120812160FC01208388E2BF
:1011F00090E028E230E0F90120812D7FFC0120837E
:1012000088E290E028E230E0F90120812460FC01CE
:10121000208380E090E0A0EAB0E48A839B83AC83E3
:10122000BD836A817B818C819D8126E636E646E618
:1012300055E40E941A6FDC01CB018E839F83A8873F
:10124000B98711E06E817F818885998520E030E043
:1012500040E85FE30E94CC6D88230CF010E011237E
:1012600029F081E090E09B878A8746C011E06E817B
:101270007F818885998520E03FEF4FE757E40E9402
:10128000166F18160CF010E0112361F16A817B8152
:101290008C819D8120E030E040E251E40E941A6F91
:1012A000DC01CB01BC01CD010E94386EDC01CB0119
:1012B0009B878A8712C080E791E09D878C878C8509
:1012C0009D858C01C8010197F1F78C011D870C8762
:1012D0008A859B8501979B878A878A859B8500974E
:1012E00051F717C06E817F81888599850E94386E7D
:1012F000DC01CB019B878A878A859B859F878E87A8
:101300008E859F858C01F8013197F1F78F011F873A
:101310000E8788E290E028E230E0F90120812B7FFF
:10132000FC0120838E8D8F708E8F8E8D8295807FB5
:101330008E8F88E290E028E230E0F90120812F7062
:10134000FC01208388E290E028E230E0F90130815E
:101350002E8D232BFC01208388E290E028E230E0F0
:10136000F90120812160FC01208388E290E028E2DD
:1013700030E0F90120812D7FFC01208388E290E09C
:1013800028E230E0F90120812460FC01208380E024
:1013900090E0A0EAB0E4888B998BAA8BBB8B68891C
:1013A00079898A899B8926E636E646E655E40E94D5
:1013B0001A6FDC01CB018C8B9D8BAE8BBF8B11E048
:1013C0006C897D898E899F8920E030E040E85FE369
:1013D0000E94CC6D88230CF010E0112329F081E0ED
:1013E00090E0998F888F46C011E06C897D898E8945
:1013F0009F8920E03FEF4FE757E40E94166F1816D1
:101400000CF010E0112361F1688979898A899B8940
:1014100020E030E040E251E40E941A6FDC01CB0191
:10142000BC01CD010E94386EDC01CB01998F888F01
:1014300012C080E791E09B8F8A8F8A8D9B8D8C01F3
:10144000C8010197F1F78C011B8F0A8F888D998D48
:101450000197998F888F888D998D009751F717C0C4
:101460006C897D898E899F890E94386EDC01CB0151
:10147000998F888F888D998D9D8F8C8F8C8D9D8D68
:101480008C01F8013197F1F78F011D8F0C8F88E2E5
:1014900090E028E230E0F90120812B7FFC012083DD
:1014A0006E960FB6F894DEBF0FBECDBFDF91CF9121
:1014B0001F910F910895CF93DF93CDB7DEB780E8EA
:1014C0000E943707DF91CF910895CF93DF930F925A
:1014D0000F92CDB7DEB79A8389830BC089819A8139
:1014E000FC0180810E94C90889819A8101969A83B2
:1014F000898389819A81FC018081882379F70F9003
:101500000F90DF91CF910895CF93DF930F920F92B9
:10151000CDB7DEB789836A838981882F90E08230D6
:10152000910599F08330910524F48130910541F0C3
:101530001BC08330910571F08430910581F014C097
:101540008A8181580E94370710C08A8181540E9485
:1015500037070BC08A818D560E94370706C08A81E3
:101560008D520E94370701C000000F900F90DF914D
:10157000CF910895CF93DF93CDB7DEB727970FB6FE
:10158000F894DEBF0FBECDBF8A836B835D834C832F
:101590003F832E8319828A81882319F08B818823C7
:1015A00019F40E945B0A04C08A816B810E94840A3C
:1015B0008E819F818530910519F089818130B1F448
:1015C0008C819D8120E137E2B9010E947D6F9B01F2
:1015D000C901C0969093840480938304809183040E
:1015E000909184040E94C90881E089838E819F8143
:1015F0008430910519F08981813019F58C819D81A4
:1016000028EE33E0B9010E947D6F9B01C9019093E0
:10161000A1048093A0048091A0049091A1042AE0E9
:1016200030E0B9010E947D6FC0969093F1048093E1
:10163000F0048091F0049091F1040E94C90881E0C7
:1016400089838E819F818330910519F08981813052
:1016500019F58C819D8124E630E0B9010E947D6FEF
:101660009B01C9019093A1048093A0048091A004E0
:101670009091A1042AE030E0B9010E947D6FC096EC
:101680009093C5048093C4048091C4049091C504D0
:101690000E94C90881E089838E819F8182309105F3
:1016A00019F08981813019F58C819D812AE030E023
:1016B000B9010E947D6F9B01C9019093A1048093A1
:1016C000A0048091A0049091A1042AE030E0B90127
:1016D0000E947D6FC0969093BF048093BE0480915A
:1016E000BE049091BF040E94C90881E089838E8165
:1016F0009F818130910519F08981813091F48C812D
:101700009D812AE030E0B9010E947D6FC0969093E0
:10171000EF048093EE048091EE049091EF040E9418
:10172000C9088E819F81863091051CF085E40E9456
:10173000C90827960FB6F894DEBF0FBECDBFDF9164
:10174000CF910895CF93DF93CDB7DEB781E290E0DC
:1017500021E230E0F90120812F60FC01208382E248
:1017600090E022E230E0F9012081207FFC0120831B
:101770008AE091E02AE031E0F90120812861FC0152
:1017800020838BE091E02BE031E0F901208128619A
:10179000FC012083DF91CF910895CF93DF93CDB7E4
:1017A000DEB78DE290E02DE230E0F90120812F7E5E
:1017B000FC0120838EE290E02EE230E0F9012081EE
:1017C0002061FC012083DF91CF910895CF93DF93B7
:1017D000CDB7DEB78DE290E02DE230E0F901208157
:1017E0002F7DFC0120838EE290E02EE230E0F901B3
:1017F00020812062FC012083DF91CF910895CF9357
:10180000DF930F920F92CDB7DEB789836A8388E2A8
:1018100091E02981FC0120838AE291E02A81FC0188
:1018200020830F900F90DF91CF910895CF93DF9396
:10183000CDB7DEB7F8948AE690E02AE630E0F90109
:1018400020812260FC0120838DE390E02DE330E0D5
:10185000F90120812061FC0120837894DF91CF91F0
:101860000895CF93DF93CDB7DEB7F8948AE690E082
:101870002AE630E0F90120812860FC0120838DE315
:1018800090E02DE330E0F90120812062FC0120830B
:101890007894DF91CF9108951F920F920FB60F9217
:1018A00011248F939F93AF93BF93CF93DF93CDB7C3
:1018B000DEB78091440390914503A0914603B09117
:1018C00047030196A11DB11D8093440390934503E6
:1018D000A0934603B0934703DF91CF91BF91AF919F
:1018E0009F918F910F900FBE0F901F9018951F9290
:1018F0000F920FB60F9211248F939F93AF93BF93C4
:10190000CF93DF93CDB7DEB7809140039091410331
:10191000A0914203B09143030196A11DB11D809394
:10192000400390934103A0934203B0934303DF919C
:10193000CF91BF91AF919F918F910F900FBE0F905C
:101940001F901895CF93DF930F920F92CDB7DEB70C
:101950008A8319828A818F708A8382E290E0FC01F7
:10196000808189838981807F898399818A81892B7C
:10197000898382E290E02981FC0120830F900F90FF
:10198000DF91CF910895CF93DF93CDB7DEB786E097
:101990000E94A20CDF91CF910895CF93DF93CDB732
:1019A000DEB789E00E94A20CDF91CF910895CF931A
:1019B000DF93CDB7DEB785E00E94A20CDF91CF9117
:1019C0000895CF93DF93CDB7DEB78AE00E94A20CD3
:1019D000DF91CF910895CF93DF93CDB7DEB784E049
:1019E0000E94A20CDF91CF910895CF93DF93CDB7E2
:1019F000DEB782E00E94A20CDF91CF910895CF93D1
:101A0000DF93CDB7DEB781E00E94A20CDF91CF91CA
:101A10000895CF93DF93CDB7DEB788E00E94A20C84
:101A2000DF91CF910895CF93DF93CDB7DEB780E0FC
:101A30000E94A20CDF91CF910895CF93DF93CDB791
:101A4000DEB72A970FB6F894DEBF0FBECDBF9A87D8
:101A5000898780E090E0DC0189839A83AB83BC8333
:101A60001D821E821F82188689859A85CC01A0E07E
:101A7000B0E0BC01CD010E94646EDC01CB01BC0171
:101A8000CD0128E431EE42E850E40E94D06DDC0143
:101A9000CB0189839A83AB83BC8369817A818B81F3
:101AA0009C810E94386EDC01CB01CC01A0E0B0E04B
:101AB0008D839E83AF83B8871092440310924503B1
:101AC0001092460310924703109240031092410374
:101AD000109242031092430301C00000209144037E
:101AE00030914503409146035091470371E08D8149
:101AF0009E81AF81B885281739074A075B0708F42C
:101B000070E0209140033091410340914203509195
:101B1000430361E08D819E81AF81B8852817390725
:101B20004A075B0708F460E0872F862B8823A9F219
:101B300000000E94130D2A960FB6F894DEBF0FBE68
:101B4000CDBFDF91CF910895CF93DF93CDB7DEB7AF
:101B50002A970FB6F894DEBF0FBECDBF9A8789874C
:101B600080E090E0DC0189839A83AB83BC831D8293
:101B70001E821F82188689859A85CC01A0E0B0E07C
:101B8000BC01CD010E94646EDC01CB01BC01CD0122
:101B900025EE30ED4AEA50E40E94D06DDC01CB0125
:101BA00089839A83AB83BC8369817A818B819C8191
:101BB0000E94386EDC01CB018D839E83AF83B88792
:101BC000109244031092450310924603109247036B
:101BD00001C0000020914403309145034091460329
:101BE000509147038D819E81AF81B88582179307FD
:101BF000A407B50770F700000E94130D2A960FB6D0
:101C0000F894DEBF0FBECDBFDF91CF910895CF9383
:101C1000DF930F920F92CDB7DEB79A8389830E942C
:101C2000C30C89819A810E94A40D0F900F90DF91BF
:101C3000CF910895CF93DF930F920F92CDB7DEB778
:101C40009A8389830E94CD0C89819A810E94A40D78
:101C50000F900F90DF91CF910895CF93DF930F9264
:101C60000F92CDB7DEB79A8389830E94D70C898102
:101C70009A810E941D0D0F900F90DF91CF910895D2
:101C8000CF93DF930F920F92CDB7DEB79A838983FC
:101C90000E94E10C89819A810E941D0D0F900F9086
:101CA000DF91CF910895CF93DF930F920F92CDB72D
:101CB000DEB79A8389830E94EB0C89819A81880F11
:101CC000991F9A83898389819A810E941D0D0F90A3
:101CD0000F90DF91CF910895CF93DF930F920F92E2
:101CE000CDB7DEB79A8389830E94F50C89819A81EA
:101CF000880F991F9A83898389819A810E941D0D7B
:101D00000F900F90DF91CF910895CF93DF930F92B3
:101D10000F92CDB7DEB79A8389830E94FF0C898129
:101D20009A81880F991F9A83898389819A810E9459
:101D30001D0D0F900F90DF91CF910895CF93DF93FA
:101D40000F920F92CDB7DEB79A8389830E94090D57
:101D500089819A81880F991F9A83898389819A81C1
:101D60000E941D0D0F900F90DF91CF9108950F935A
:101D70001F93CF93DF93CDB7DEB76C970FB6F89470
:101D8000DEBF0FBECDBF0E94130D80E090E0A0EA41
:101D9000B1E489839A83AB83BC8369817A818B8127
:101DA0009C8126E636E646E655E40E941A6FDC0181
:101DB000CB018D839E83AF83B88711E06D817E81D7
:101DC0008F81988520E030E040E85FE30E94CC6D91
:101DD00088230CF010E0112329F081E090E09A872D
:101DE000898746C011E06D817E818F81988520E0D2
:101DF0003FEF4FE757E40E94166F18160CF010E003
:101E0000112361F169817A818B819C8120E030E02E
:101E100040E251E40E941A6FDC01CB01BC01CD010C
:101E20000E94386EDC01CB019A87898712C080E757
:101E300091E09C878B878B859C858C01C8010197DD
:101E4000F1F78C011C870B8789859A8501979A8702
:101E5000898789859A85009751F717C06D817E81A2
:101E60008F8198850E94386EDC01CB019A87898723
:101E700089859A859E878D878D859E858C01C80171
:101E80000197F1F78C011E870D8783E290E00E9495
:101E90006C0E0E94F50C01C0000085EF92E3FC017E
:101EA0001995809149038F3020F0809148038F303D
:101EB00020F480914903873478F30E94130D80E069
:101EC00090E0A8E4B2E48F87988BA98BBA8B6F85DA
:101ED000788989899A8926E636E646E655E40E949D
:101EE0001A6FDC01CB018B8B9C8BAD8BBE8B11E011
:101EF0006B897C898D899E8920E030E040E85FE332
:101F00000E94CC6D88230CF010E0112329F081E0B1
:101F100090E0988F8F8B46C011E06B897C898D890A
:101F20009E8920E03FEF4FE757E40E94166F181696
:101F30000CF010E0112361F16F85788989899A8905
:101F400020E030E040E251E40E941A6FDC01CB0156
:101F5000BC01CD010E94386EDC01CB01988F8F8BC4
:101F600012C080E791E09A8F898F898D9A8D8C01BC
:101F7000C8010197F1F78C011A8F098F8F89988D0D
:101F80000197988F8F8B8F89988D009751F718C084
:101F90006B897C898D899E890E94386EDC01CB011A
:101FA000988F8F8B8F89988D9C8F8B8F8B8D9C8D2D
:101FB0008C01C8010197F1F78C011C8F0B8F01C0B8
:101FC00000006C960FB6F894DEBF0FBECDBFDF9158
:101FD000CF911F910F9108950F931F93CF93DF938C
:101FE000CDB7DEB76C970FB6F894DEBF0FBECDBF8E
:101FF0000E94130D80E090E0A8E4B2E489839A8304
:10200000AB83BC8369817A818B819C8126E636E62D
:1020100046E655E40E941A6FDC01CB018D839E8356
:10202000AF83B88711E06D817E818F81988520E034
:1020300030E040E85FE30E94CC6D88230CF010E0B4
:10204000112329F081E090E09A87898746C011E04A
:102050006D817E818F81988520E03FEF4FE757E4C7
:102060000E94166F18160CF010E0112361F16981BF
:102070007A818B819C8120E030E040E251E40E9433
:102080001A6FDC01CB01BC01CD010E94386EDC016E
:10209000CB019A87898712C080E791E09C878B8764
:1020A0008B859C858C01C8010197F1F78C011C87F9
:1020B0000B8789859A8501979A87898789859A856B
:1020C000009751F717C06D817E818F8198850E949E
:1020D000386EDC01CB019A87898789859A859E872E
:1020E0008D878D859E858C01C8010197F1F78C0144
:1020F0001E870D8783E290E00E94400E0E94E10C53
:1021000001C0000085EF92E3FC011995809149031D
:102110008F3020F0809148038F3020F48091490364
:10212000883478F30E94130D80E090E0A8E4B2E4D4
:102130008F87988BA98BBA8B6F85788989899A89C3
:1021400026E636E646E655E40E941A6FDC01CB012E
:102150008B8B9C8BAD8BBE8B11E06B897C898D89C1
:102160009E8920E030E040E85FE30E94CC6D882348
:102170000CF010E0112329F081E090E0988F8F8B14
:1021800046C011E06B897C898D899E8920E03FEFF4
:102190004FE757E40E94166F18160CF010E0112359
:1021A00061F16F85788989899A8920E030E040E281
:1021B00051E40E941A6FDC01CB01BC01CD010E94E9
:1021C000386EDC01CB01988F8F8B12C080E791E0D5
:1021D0009A8F898F898D9A8D8C01C8010197F1F7AB
:1021E0008C011A8F098F8F89988D0197988F8F8B0B
:1021F0008F89988D009751F718C06B897C898D89DC
:102200009E890E94386EDC01CB01988F8F8B8F895D
:10221000988D9C8F8B8F8B8D9C8D8C01C801019725
:10222000F1F78C011C8F0B8F01C000006C960FB66C
:10223000F894DEBF0FBECDBFDF91CF911F910F91FC
:1022400008950F931F93CF93DF93CDB7DEB76C97AD
:102250000FB6F894DEBF0FBECDBF0E94130D80E015
:1022600090E0A0EAB1E489839A83AB83BC8369815F
:102270007A818B819C8126E636E646E655E40E940B
:102280001A6FDC01CB018D839E83AF83B88711E089
:102290006D817E818F81988520E030E040E85FE3AA
:1022A0000E94CC6D88230CF010E0112329F081E00E
:1022B00090E09A87898746C011E06D817E818F8189
:1022C000988520E03FEF4FE757E40E94166F1816FD
:1022D0000CF010E0112361F169817A818B819C817E
:1022E00020E030E040E251E40E941A6FDC01CB01B3
:1022F000BC01CD010E94386EDC01CB019A87898731
:1023000012C080E791E09C878B878B859C858C0130
:10231000C8010197F1F78C011C870B8789859A8585
:1023200001979A87898789859A85009751F717C001
:102330006D817E818F8198850E94386EDC01CB0192
:102340009A87898789859A859E878D878D859E85C1
:102350008C01C8010197F1F78C011E870D8783E27C
:1023600090E00E94530E0E94EB0C01C0000085EF2C
:1023700092E3FC011995809149038F3020F0809100
:102380004A038F3020F480914903813578F30E940D
:10239000130D80E090E0A8E4B2E48F87988BA98BBE
:1023A000BA8B6F85788989899A8926E636E646E66A
:1023B00055E40E941A6FDC01CB018B8B9C8BAD8B9B
:1023C000BE8B11E06B897C898D899E8920E030E08D
:1023D00040E85FE30E94CC6D88230CF010E01123ED
:1023E00029F081E090E0988F8F8B46C011E06B89D7
:1023F0007C898D899E8920E03FEF4FE757E40E945A
:10240000166F18160CF010E0112361F16F857889B2
:1024100089899A8920E030E040E251E40E941A6FF5
:10242000DC01CB01BC01CD010E94386EDC01CB0187
:10243000988F8F8B12C080E791E09A8F898F898D5A
:102440009A8D8C01C8010197F1F78C011A8F098FC1
:102450008F89988D0197988F8F8B8F89988D009792
:1024600051F718C06B897C898D899E890E94386ECE
:10247000DC01CB01988F8F8B8F89988D9C8F8B8FF0
:102480008B8D9C8D8C01C8010197F1F78C011C8FFD
:102490000B8F01C000006C960FB6F894DEBF0FBE24
:1024A000CDBFDF91CF911F910F9108950F931F938F
:1024B000CF93DF93CDB7DEB7AA970FB6F894DEBF00
:1024C0000FBECDBF0E94130D80E090E0A0EAB1E402
:1024D00089839A83AB83BC8369817A818B819C8158
:1024E00026E636E646E655E40E941A6FDC01CB018B
:1024F0008D839E83AF83B88711E06D817E818F814C
:10250000988520E030E040E85FE30E94CC6D8823AE
:102510000CF010E0112329F081E090E09A87898780
:1025200046C011E06D817E818F81988520E03FEF6C
:102530004FE757E40E94166F18160CF010E01123B5
:1025400061F169817A818B819C8120E030E040E2F9
:1025500051E40E941A6FDC01CB01BC01CD010E9445
:10256000386EDC01CB019A87898712C080E791E041
:102570009C878B878B859C858C01C8010197F1F71F
:102580008C011C870B8789859A8501979A87898793
:1025900089859A85009751F717C06D817E818F815B
:1025A00098850E94386EDC01CB019A8789878985DE
:1025B0009A859E878D878D859E858C01C8010197A0
:1025C000F1F78C011E870D8783E290E00E942D0EAB
:1025D0000E94D70C01C0000085EF92E3FC01199521
:1025E000809149038931B8F30E94130D80E090E097
:1025F000A0EAB1E48F87988BA98BBA8B6F85788915
:1026000089899A8926E636E646E655E40E941A6FDD
:10261000DC01CB018B8B9C8BAD8BBE8B11E06B896E
:102620007C898D899E8920E030E040E85FE30E944C
:10263000CC6D88230CF010E0112329F081E090E0AC
:10264000988F8F8B46C011E06B897C898D899E891C
:1026500020E03FEF4FE757E40E94166F18160CF08A
:1026600010E0112361F16F85788989899A8920E0CA
:1026700030E040E251E40E941A6FDC01CB01BC0162
:10268000CD010E94386EDC01CB01988F8F8B12C078
:1026900080E791E09A8F898F898D9A8D8C01C8018E
:1026A0000197F1F78C011A8F098F8F89988D019707
:1026B000988F8F8B8F89988D009751F718C06B89F1
:1026C0007C898D899E890E94386EDC01CB01988FB0
:1026D0008F8B8F89988D9C8F8B8F8B8D9C8D8C0190
:1026E000C8010197F1F78C011C8F0B8F00C000000F
:1026F00080E090E0A0EAB1E48D8F9E8FAF8FB8A309
:102700006D8D7E8D8F8D98A126E636E646E655E4E2
:102710000E941A6FDC01CB0189A39AA3ABA3BCA3CF
:1027200011E069A17AA18BA19CA120E030E040E8F2
:102730005FE30E94CC6D88230CF010E0112329F098
:1027400081E090E09EA38DA346C011E069A17AA12B
:102750008BA19CA120E03FEF4FE757E40E94166F4A
:1027600018160CF010E0112361F16D8D7E8D8F8DA8
:1027700098A120E030E040E251E40E941A6FDC01B1
:10278000CB01BC01CD010E94386EDC01CB019EA3C0
:102790008DA312C080E791E098A78FA38FA198A581
:1027A0008C01C8010197F1F78C0118A70FA38DA127
:1027B0009EA101979EA38DA38DA19EA1009751F785
:1027C00017C069A17AA18BA19CA10E94386EDC017F
:1027D000CB019EA38DA38DA19EA19AA789A789A5B0
:1027E0009AA58C01C8010197F1F78C011AA709A7D6
:1027F000AA960FB6F894DEBF0FBECDBFDF91CF9182
:102800001F910F9108950F931F93CF93DF93CDB72F
:10281000DEB76C970FB6F894DEBF0FBECDBF89E16F
:1028200090E00E94400E0E94E10C01C0000085EF84
:1028300092E3FC011995809149038931B8F30E9414
:10284000130D80E090E0A0EAB1E489839A83AB8322
:10285000BC8369817A818B819C8126E636E646E6D7
:1028600055E40E941A6FDC01CB018D839E83AF83F8
:10287000B88711E06D817E818F81988520E030E0FE
:1028800040E85FE30E94CC6D88230CF010E0112338
:1028900029F081E090E09A87898746C011E06D8138
:1028A0007E818F81988520E03FEF4FE757E40E94BB
:1028B000166F18160CF010E0112361F169817A810E
:1028C0008B819C8120E030E040E251E40E941A6F4D
:1028D000DC01CB01BC01CD010E94386EDC01CB01D3
:1028E0009A87898712C080E791E09C878B878B85C8
:1028F0009C858C01C8010197F1F78C011C870B871F
:1029000089859A8501979A87898789859A8500970D
:1029100051F718C06D817E818F8198850E94386E35
:10292000DC01CB019A87898789859A859E878D8767
:102930008D859E858C01C8010197F1F78C011E875A
:102940000D8700C0000080E090E0A0EAB1E48F872E
:10295000988BA98BBA8B6F85788989899A8926E6A5
:1029600036E646E655E40E941A6FDC01CB018B8BFC
:102970009C8BAD8BBE8B11E06B897C898D899E8988
:1029800020E030E040E85FE30E94CC6D88230CF04B
:1029900010E0112329F081E090E0988F8F8B46C0E2
:1029A00011E06B897C898D899E8920E03FEF4FE79C
:1029B00057E40E94166F18160CF010E0112361F115
:1029C0006F85788989899A8920E030E040E251E476
:1029D0000E941A6FDC01CB01BC01CD010E94386E50
:1029E000DC01CB01988F8F8B12C080E791E09A8F2A
:1029F000898F898D9A8D8C01C8010197F1F78C011F
:102A00001A8F098F8F89988D0197988F8F8B8F8957
:102A1000988D009751F717C06B897C898D899E89A5
:102A20000E94386EDC01CB01988F8F8B8F89988D37
:102A30009C8F8B8F8B8D9C8D8C01C8010197F1F73A
:102A40008C011C8F0B8F6C960FB6F894DEBF0FBEF7
:102A5000CDBFDF91CF911F910F9108950F931F93D9
:102A6000CF93DF93CDB7DEB76C970FB6F894DEBF88
:102A70000FBECDBF0E94130D80E090E0A8E4B2E449
:102A800089839A83AB83BC8369817A818B819C81A2
:102A900026E636E646E655E40E941A6FDC01CB01D5
:102AA0008D839E83AF83B88711E06D817E818F8196
:102AB000988520E030E040E85FE30E94CC6D8823F9
:102AC0000CF010E0112329F081E090E09A878987CB
:102AD00046C011E06D817E818F81988520E03FEFB7
:102AE0004FE757E40E94166F18160CF010E0112300
:102AF00061F169817A818B819C8120E030E040E244
:102B000051E40E941A6FDC01CB01BC01CD010E948F
:102B1000386EDC01CB019A87898712C080E791E08B
:102B20009C878B878B859C858C01C8010197F1F769
:102B30008C011C870B8789859A8501979A878987DD
:102B400089859A85009751F717C06D817E818F81A5
:102B500098850E94386EDC01CB019A878987898528
:102B60009A859E878D878D859E858C01C8010197EA
:102B7000F1F78C011E870D8783E290E00E942D0EF5
:102B80000E94D70C01C0000085EF92E3FC0119956B
:102B9000809149038F3020F080914A038F3020F4D8
:102BA00080914903873478F30E94130D80E090E010
:102BB000A8E4B2E48F87988BA98BBA8B6F8578894C
:102BC00089899A8926E636E646E655E40E941A6F18
:102BD000DC01CB018B8B9C8BAD8BBE8B11E06B89A9
:102BE0007C898D899E8920E030E040E85FE30E9487
:102BF000CC6D88230CF010E0112329F081E090E0E7
:102C0000988F8F8B46C011E06B897C898D899E8956
:102C100020E03FEF4FE757E40E94166F18160CF0C4
:102C200010E0112361F16F85788989899A8920E004
:102C300030E040E251E40E941A6FDC01CB01BC019C
:102C4000CD010E94386EDC01CB01988F8F8B12C0B2
:102C500080E791E09A8F898F898D9A8D8C01C801C8
:102C60000197F1F78C011A8F098F8F89988D019741
:102C7000988F8F8B8F89988D009751F718C06B892B
:102C80007C898D899E890E94386EDC01CB01988FEA
:102C90008F8B8F89988D9C8F8B8F8B8D9C8D8C01CA
:102CA000C8010197F1F78C011C8F0B8F01C0000048
:102CB0006C960FB6F894DEBF0FBECDBFDF91CF91FB
:102CC0001F910F9108950F931F93CF93DF93CDB76B
:102CD000DEB76C970FB6F894DEBF0FBECDBF80E0B5
:102CE00090E0A0EAB1E489839A83AB83BC836981D5
:102CF0007A818B819C8126E636E646E655E40E9481
:102D00001A6FDC01CB018D839E83AF83B88711E0FE
:102D10006D817E818F81988520E030E040E85FE31F
:102D20000E94CC6D88230CF010E0112329F081E083
:102D300090E09A87898746C011E06D817E818F81FE
:102D4000988520E03FEF4FE757E40E94166F181672
:102D50000CF010E0112361F169817A818B819C81F3
:102D600020E030E040E251E40E941A6FDC01CB0128
:102D7000BC01CD010E94386EDC01CB019A878987A6
:102D800012C080E791E09C878B878B859C858C01A6
:102D9000C8010197F1F78C011C870B8789859A85FB
:102DA00001979A87898789859A85009751F717C077
:102DB0006D817E818F8198850E94386EDC01CB0108
:102DC0009A87898789859A859E878D878D859E8537
:102DD0008C01C8010197F1F78C011E870D878EE1E8
:102DE00090E00E94850E0E94FF0C01C0000085EF5C
:102DF00092E3FC011995809149038A31B8F30E944E
:102E0000130D80E090E0A0EAB1E48F87988BA98B46
:102E1000BA8B6F85788989899A8926E636E646E6EF
:102E200055E40E941A6FDC01CB018B8B9C8BAD8B20
:102E3000BE8B11E06B897C898D899E8920E030E012
:102E400040E85FE30E94CC6D88230CF010E0112372
:102E500029F081E090E0988F8F8B46C011E06B895C
:102E60007C898D899E8920E03FEF4FE757E40E94DF
:102E7000166F18160CF010E0112361F16F85788938
:102E800089899A8920E030E040E251E40E941A6F7B
:102E9000DC01CB01BC01CD010E94386EDC01CB010D
:102EA000988F8F8B12C080E791E09A8F898F898DE0
:102EB0009A8D8C01C8010197F1F78C011A8F098F47
:102EC0008F89988D0197988F8F8B8F89988D009718
:102ED00051F718C06B897C898D899E890E94386E54
:102EE000DC01CB01988F8F8B8F89988D9C8F8B8F76
:102EF0008B8D9C8D8C01C8010197F1F78C011C8F83
:102F00000B8F01C000006C960FB6F894DEBF0FBEA9
:102F1000CDBFDF91CF911F910F9108950F931F9314
:102F2000CF93DF93CDB7DEB76C970FB6F894DEBFC3
:102F30000FBECDBF80E090E0A0EAB1E489839A8320
:102F4000AB83BC8369817A818B819C8126E636E6DE
:102F500046E655E40E941A6FDC01CB018D839E8307
:102F6000AF83B88711E06D817E818F81988520E0E5
:102F700030E040E85FE30E94CC6D88230CF010E065
:102F8000112329F081E090E09A87898746C011E0FB
:102F90006D817E818F81988520E03FEF4FE757E478
:102FA0000E94166F18160CF010E0112361F1698170
:102FB0007A818B819C8120E030E040E251E40E94E4
:102FC0001A6FDC01CB01BC01CD010E94386EDC011F
:102FD000CB019A87898712C080E791E09C878B8715
:102FE0008B859C858C01C8010197F1F78C011C87AA
:102FF0000B8789859A8501979A87898789859A851C
:10300000009751F717C06D817E818F8198850E944E
:10301000386EDC01CB019A87898789859A859E87DE
:103020008D878D859E858C01C8010197F1F78C01F4
:103030001E870D878EE190E00E949E0E0E94090D72
:1030400001C0000085EF92E3FC01199580914903CE
:103050008A31B8F30E94130D80E090E0A0EAB1E459
:103060008F87988BA98BBA8B6F85788989899A8984
:1030700026E636E646E655E40E941A6FDC01CB01EF
:103080008B8B9C8BAD8BBE8B11E06B897C898D8982
:103090009E8920E030E040E85FE30E94CC6D882309
:1030A0000CF010E0112329F081E090E0988F8F8BD5
:1030B00046C011E06B897C898D899E8920E03FEFB5
:1030C0004FE757E40E94166F18160CF010E011231A
:1030D00061F16F85788989899A8920E030E040E242
:1030E00051E40E941A6FDC01CB01BC01CD010E94AA
:1030F000386EDC01CB01988F8F8B12C080E791E096
:103100009A8F898F898D9A8D8C01C8010197F1F76B
:103110008C011A8F098F8F89988D0197988F8F8BCB
:103120008F89988D009751F718C06B897C898D899C
:103130009E890E94386EDC01CB01988F8F8B8F891E
:10314000988D9C8F8B8F8B8D9C8D8C01C8010197E6
:10315000F1F78C011C8F0B8F01C000006C960FB62D
:10316000F894DEBF0FBECDBFDF91CF911F910F91BD
:1031700008950F931F93CF93DF93CDB7DEB76C976E
:103180000FB6F894DEBF0FBECDBF0E94130D80E0D6
:1031900090E0A0EAB1E489839A83AB83BC83698120
:1031A0007A818B819C8126E636E646E655E40E94CC
:1031B0001A6FDC01CB018D839E83AF83B88711E04A
:1031C0006D817E818F81988520E030E040E85FE36B
:1031D0000E94CC6D88230CF010E0112329F081E0CF
:1031E00090E09A87898746C011E06D817E818F814A
:1031F000988520E03FEF4FE757E40E94166F1816BE
:103200000CF010E0112361F169817A818B819C813E
:1032100020E030E040E251E40E941A6FDC01CB0173
:10322000BC01CD010E94386EDC01CB019A878987F1
:1032300012C080E791E09C878B878B859C858C01F1
:10324000C8010197F1F78C011C870B8789859A8546
:1032500001979A87898789859A85009751F717C0C2
:103260006D817E818F8198850E94386EDC01CB0153
:103270009A87898789859A859E878D878D859E8582
:103280008C01C8010197F1F78C011E870D8780EA38
:1032900090E00E94400E0E94E10C01C0000085EF0A
:1032A00092E3FC011995809149038A31B8F30E9499
:1032B000130D000080E090E0A0E2B2E48F87988BCD
:1032C000A98BBA8B6F85788989899A8926E636E633
:1032D00046E655E40E941A6FDC01CB018B8B9C8B78
:1032E000AD8BBE8B11E06B897C898D899E8920E036
:1032F00030E040E85FE30E94CC6D88230CF010E0E2
:10330000112329F081E090E0988F8F8B46C011E067
:103310006B897C898D899E8920E03FEF4FE757E4D8
:103320000E94166F18160CF010E0112361F16F85E2
:10333000788989899A8920E030E040E251E40E944E
:103340001A6FDC01CB01BC01CD010E94386EDC019B
:10335000CB01988F8F8B12C080E791E09A8F898F75
:10336000898D9A8D8C01C8010197F1F78C011A8F14
:10337000098F8F89988D0197988F8F8B8F89988D62
:10338000009751F717C06B897C898D899E890E94AF
:10339000386EDC01CB01988F8F8B8F89988D9C8F35
:1033A0008B8F8B8D9C8D8C01C8010197F1F78C015F
:1033B0001C8F0B8F88E290E00E941A0E6C960FB65D
:1033C000F894DEBF0FBECDBFDF91CF911F910F915B
:1033D0000895CF93DF93CDB7DEB780E390E0FC0193
:1033E000108281E390E0FC01108287E091E0FC0113
:1033F000108288E091E0FC011082DF91CF91089566
:10340000CF93DF93CDB7DEB78AE790E0FC0110825F
:103410008BE790E0FC0110828CE790E020E2FC0159
:10342000208380E590E020E8FC0120838AE790E09B
:1034300026E8FC012083DF91CF910895CF93DF939D
:103440000F920F92CDB7DEB78A838A81883028F039
:103450008BE790E028E0FC0120838A8187708A83D3
:103460008CE790E02A812062FC0120838AE790E0CB
:103470002AE730E0F90120812064FC01208300006C
:103480008AE790E0FC018081882F90E08071907045
:103490000097B1F389E790E0FC01808189838AE796
:1034A00090E02AE730E0F90120812061FC012083CF
:1034B0008BE790E0FC01108289810F900F90DF91E3
:1034C000CF910895CF93DF9300D0CDB7DEB7898336
:1034D0006A834B838B810E941E1A8093BB04809168
:1034E000BB04282F30E089816A81A90123E030E004
:1034F0000E94BA0A0F900F900F90DF91CF9108951C
:103500001F920F920FB60F9200905B000F92112442
:103510002F933F934F935F936F937F938F939F93DB
:10352000AF93BF93EF93FF93CF93DF93CDB7DEB706
:1035300085EF92E3FC0119958DE793E3FC01199562
:1035400084E990E020EC3DEFFC0131832083DF91A2
:10355000CF91FF91EF91BF91AF919F918F917F910B
:103560006F915F914F913F912F910F9000925B006F
:103570000F900FBE0F901F9018951F920F920FB6CD
:103580000F9200905B000F9211242F933F934F9363
:103590005F936F937F938F939F93AF93BF93EF93BB
:1035A000FF93CF93DF93CDB7DEB784EA90E020E8B6
:1035B00039EEFC013183208380914B0390914C03C1
:1035C000019690934C0380934B0320914B033091D1
:1035D0004C038091C0049091C1042817390759F415
:1035E00080914D0390914E038130910521F484E345
:1035F0009BE1FC011995DF91CF91FF91EF91BF9174
:10360000AF919F918F917F916F915F914F913F917A
:103610002F910F9000925B000F900FBE0F901F90A4
:103620001895CF93DF930F920F92CDB7DEB79A83A1
:10363000898381E090E090934E0380934D03109234
:103640004C0310924B0389819A8101969093C10497
:103650008093C00482E790E021E0FC0120830F907A
:103660000F90DF91CF910895CF93DF93CDB7DEB761
:1036700010924E0310924D0310924C0310924B0384
:1036800082E790E0FC011082DF91CF910895CF9303
:10369000DF93CDB7DEB784E290E024E230E0F901B9
:1036A00020812062FC01208385E290E025E230E069
:1036B000F90120812062FC012083DF91CF910895E0
:1036C000CF93DF93CDB7DEB784E290E024E230E021
:1036D000F90120812064FC01208385E290E025E24D
:1036E00030E0F90120812064FC012083DF91CF913B
:1036F0000895CF93DF93CDB7DEB784E290E024E264
:1037000030E0F90120812068FC01208385E290E00F
:1037100025E230E0F90120812068FC012083DF915F
:10372000CF9108950F931F93CF93DF9300D00F9203
:103730000F92CDB7DEB78D8380E090E0DC01898306
:103740009A83AB83BC838D81882F90E0A0E0B0E0AA
:10375000BC01CD010E94646EDC01CB01BC01CD0136
:103760002FE632E143E05FE30E941A6FDC01CB01F8
:10377000BC01CD0121E73DE34AE052E40E94686DBF
:10378000DC01CB0189839A83AB83BC8389E890E019
:10379000FC01108208E810E069817A818B819C81AC
:1037A0000E94386EDC01CB01F80180830F900F90EE
:1037B0000F900F900F90DF91CF911F910F9108956F
:1037C0000F931F93CF93DF9300D00F920F92CDB73B
:1037D000DEB78D8380E090E0DC0189839A83AB8340
:1037E000BC838D81882F90E0A0E0B0E0BC01CD01CA
:1037F0000E94646EDC01CB01BC01CD012FE632E1F9
:1038000043E05FE30E941A6FDC01CB01BC01CD01F4
:1038100021E73DE34AE052E40E94686DDC01CB0100
:1038200089839A83AB83BC838BE890E0FC01108290
:103830000AE810E069817A818B819C810E94386E50
:10384000DC01CB01F80180830F900F900F900F9057
:103850000F90DF91CF911F910F9108950F931F93B8
:10386000CF93DF9300D00F920F92CDB7DEB78D8349
:1038700080E090E0DC0189839A83AB83BC838D81F7
:10388000882F90E0A0E0B0E0BC01CD010E94646E02
:10389000DC01CB01BC01CD012FE632E143E05FE367
:1038A0000E941A6FDC01CB01BC01CD0121E73DE391
:1038B0004AE052E40E94686DDC01CB0189839A835F
:1038C000AB83BC838DE890E0FC0110820CE810E033
:1038D00069817A818B819C810E94386EDC01CB01E9
:1038E000F80180830F900F900F900F900F90DF9151
:1038F000CF911F910F910895CF93DF93CDB7DEB78E
:1039000089E890E023E0FC01208388E890E02FEF35
:10391000FC012083DF91CF910895CF93DF93CDB742
:10392000DEB78BE890E023E0FC0120838AE890E09A
:103930002FEFFC012083DF91CF910895CF93DF9388
:10394000CDB7DEB78DE890E023E0FC0120838CE862
:1039500090E02FEFFC012083DF91CF9108950F932A
:103960001F93CF93DF93CDB7DEB76C970FB6F89464
:10397000DEBF0FBECDBF1092500389C080915003AF
:103980000E942E1C80E090E0A0E2B1E489839A833B
:10399000AB83BC8369817A818B819C8126E636E684
:1039A00046E655E40E941A6FDC01CB018D839E83AD
:1039B000AF83B88711E06D817E818F81988520E08B
:1039C00030E040E85FE30E94CC6D88230CF010E00B
:1039D000112329F081E090E09A87898746C011E0A1
:1039E0006D817E818F81988520E03FEF4FE757E41E
:1039F0000E94166F18160CF010E0112361F1698116
:103A00007A818B819C8120E030E040E251E40E9489
:103A10001A6FDC01CB01BC01CD010E94386EDC01C4
:103A2000CB019A87898712C080E791E09C878B87BA
:103A30008B859C858C01C8010197F1F78C011C874F
:103A40000B8789859A8501979A87898789859A85C1
:103A5000009751F717C06D817E818F8198850E94F4
:103A6000386EDC01CB019A87898789859A859E8784
:103A70008D878D859E858C01C8010197F1F78C019A
:103A80001E870D87809150038F5F80935003809134
:103A9000500387330CF472CF80E090E0AAE7B3E4E0
:103AA0008F87988BA98BBA8B6F85788989899A893A
:103AB00026E636E646E655E40E941A6FDC01CB01A5
:103AC0008B8B9C8BAD8BBE8B11E06B897C898D8938
:103AD0009E8920E030E040E85FE30E94CC6D8823BF
:103AE0000CF010E0112329F081E090E0988F8F8B8B
:103AF00046C011E06B897C898D899E8920E03FEF6B
:103B00004FE757E40E94166F18160CF010E01123CF
:103B100061F16F85788989899A8920E030E040E2F7
:103B200051E40E941A6FDC01CB01BC01CD010E945F
:103B3000386EDC01CB01988F8F8B12C080E791E04B
:103B40009A8F898F898D9A8D8C01C8010197F1F721
:103B50008C011A8F098F8F89988D0197988F8F8B81
:103B60008F89988D009751F717C06B897C898D8953
:103B70009E890E94386EDC01CB01988F8F8B8F89D4
:103B8000988D9C8F8B8F8B8D9C8D8C01C80101979C
:103B9000F1F78C011C8F0B8F6C960FB6F894DEBF7B
:103BA0000FBECDBFDF91CF911F910F9108950F935D
:103BB0001F93CF93DF93CDB7DEB76C970FB6F89412
:103BC000DEBF0FBECDBF87E380934F0389C08091D6
:103BD0004F030E942E1C80E090E0A0E2B1E48983B4
:103BE0009A83AB83BC8369817A818B819C8126E631
:103BF00036E646E655E40E941A6FDC01CB018D8360
:103C00009E83AF83B88711E06D817E818F81988517
:103C100020E030E040E85FE30E94CC6D88230CF0A8
:103C200010E0112329F081E090E09A87898746C04F
:103C300011E06D817E818F81988520E03FEF4FE715
:103C400057E40E94166F18160CF010E0112361F172
:103C500069817A818B819C8120E030E040E251E4EF
:103C60000E941A6FDC01CB01BC01CD010E94386EAD
:103C7000DC01CB019A87898712C080E791E09C879D
:103C80008B878B859C858C01C8010197F1F78C018E
:103C90001C870B8789859A8501979A8789878985EB
:103CA0009A85009751F717C06D817E818F81988525
:103CB0000E94386EDC01CB019A87898789859A85B5
:103CC0009E878D878D859E858C01C8010197F1F7B0
:103CD0008C011E870D8780914F03815080934F0385
:103CE00080914F03882309F072CF80E090E0AAE72B
:103CF000B3E48F87988BA98BBA8B6F857889898974
:103D00009A8926E636E646E655E40E941A6FDC01FB
:103D1000CB018B8B9C8BAD8BBE8B11E06B897C892F
:103D20008D899E8920E030E040E85FE30E94CC6D01
:103D300088230CF010E0112329F081E090E0988FA7
:103D40008F8B46C011E06B897C898D899E8920E02C
:103D50003FEF4FE757E40E94166F18160CF010E083
:103D6000112361F16F85788989899A8920E030E093
:103D700040E251E40E941A6FDC01CB01BC01CD018D
:103D80000E94386EDC01CB01988F8F8B12C080E7C8
:103D900091E09A8F898F898D9A8D8C01C801019746
:103DA000F1F78C011A8F098F8F89988D0197988F61
:103DB0008F8B8F89988D009751F717C06B897C89FD
:103DC0008D899E890E94386EDC01CB01988F8F8B84
:103DD0008F89988D9C8F8B8F8B8D9C8D8C01C801CA
:103DE0000197F1F78C011C8F0B8F6C960FB6F8942E
:103DF000DEBF0FBECDBFDF91CF911F910F91089510
:103E00000F931F93CF93DF93CDB7DEB76C970FB6A9
:103E1000F894DEBF0FBECDBF8AE580934F0389C003
:103E200080914F030E94921B80E090E0A0E2B1E4F9
:103E300089839A83AB83BC8369817A818B819C81DE
:103E400026E636E646E655E40E941A6FDC01CB0111
:103E50008D839E83AF83B88711E06D817E818F81D2
:103E6000988520E030E040E85FE30E94CC6D882335
:103E70000CF010E0112329F081E090E09A87898707
:103E800046C011E06D817E818F81988520E03FEFF3
:103E90004FE757E40E94166F18160CF010E011233C
:103EA00061F169817A818B819C8120E030E040E280
:103EB00051E40E941A6FDC01CB01BC01CD010E94CC
:103EC000386EDC01CB019A87898712C080E791E0C8
:103ED0009C878B878B859C858C01C8010197F1F7A6
:103EE0008C011C870B8789859A8501979A8789871A
:103EF00089859A85009751F717C06D817E818F81E2
:103F000098850E94386EDC01CB019A878987898564
:103F10009A859E878D878D859E858C01C801019726
:103F2000F1F78C011E870D8780914F03815080939C
:103F30004F0380914F03882309F072CF80E090E017
:103F4000AAE7B3E48F87988BA98BBA8B6F857889A2
:103F500089899A8926E636E646E655E40E941A6F74
:103F6000DC01CB018B8B9C8BAD8BBE8B11E06B8905
:103F70007C898D899E8920E030E040E85FE30E94E3
:103F8000CC6D88230CF010E0112329F081E090E043
:103F9000988F8F8B46C011E06B897C898D899E89B3
:103FA00020E03FEF4FE757E40E94166F18160CF021
:103FB00010E0112361F16F85788989899A8920E061
:103FC00030E040E251E40E941A6FDC01CB01BC01F9
:103FD000CD010E94386EDC01CB01988F8F8B12C00F
:103FE00080E791E09A8F898F898D9A8D8C01C80125
:103FF0000197F1F78C011A8F098F8F89988D01979E
:10400000988F8F8B8F89988D009751F717C06B8988
:104010007C898D899E890E94386EDC01CB01988F46
:104020008F8B8F89988D9C8F8B8F8B8D9C8D8C0126
:10403000C8010197F1F78C011C8F0B8F6C960FB69E
:10404000F894DEBF0FBECDBFDF91CF911F910F91CE
:1040500008950F931F93CF93DF93CDB7DEB76C977F
:104060000FB6F894DEBF0FBECDBF8AE580934F0335
:1040700089C080914F030E94921B80E090E0A0E2F3
:10408000B1E489839A83AB83BC8369817A818B8114
:104090009C8126E636E646E655E40E941A6FDC016E
:1040A000CB018D839E83AF83B88711E06D817E81C4
:1040B0008F81988520E030E040E85FE30E94CC6D7E
:1040C00088230CF010E0112329F081E090E09A871A
:1040D000898746C011E06D817E818F81988520E0BF
:1040E0003FEF4FE757E40E94166F18160CF010E0F0
:1040F000112361F169817A818B819C8120E030E01C
:1041000040E251E40E941A6FDC01CB01BC01CD01F9
:104110000E94386EDC01CB019A87898712C080E744
:1041200091E09C878B878B859C858C01C8010197CA
:10413000F1F78C011C870B8789859A8501979A87EF
:10414000898789859A85009751F717C06D817E818F
:104150008F8198850E94386EDC01CB019A87898710
:1041600089859A859E878D878D859E858C01C8015E
:104170000197F1F78C011E870D8780914F038F5FA8
:1041800080934F0380914F03843B08F472CF80E00B
:1041900090E0AAE7B3E48F87988BA98BBA8B6F85E1
:1041A000788989899A8926E636E646E655E40E94AA
:1041B0001A6FDC01CB018B8B9C8BAD8BBE8B11E01E
:1041C0006B897C898D899E8920E030E040E85FE33F
:1041D0000E94CC6D88230CF010E0112329F081E0BF
:1041E00090E0988F8F8B46C011E06B897C898D8918
:1041F0009E8920E03FEF4FE757E40E94166F1816A4
:104200000CF010E0112361F16F85788989899A8912
:1042100020E030E040E251E40E941A6FDC01CB0163
:10422000BC01CD010E94386EDC01CB01988F8F8BD1
:1042300012C080E791E09A8F898F898D9A8D8C01C9
:10424000C8010197F1F78C011A8F098F8F89988D1A
:104250000197988F8F8B8F89988D009751F717C092
:104260006B897C898D899E890E94386EDC01CB0127
:10427000988F8F8B8F89988D9C8F8B8F8B8D9C8D3A
:104280008C01C8010197F1F78C011C8F0B8F6C9684
:104290000FB6F894DEBF0FBECDBFDF91CF911F9157
:1042A0000F9108950F931F93CF93DF93CDB7DEB790
:1042B0006C970FB6F894DEBF0FBECDBF10924F03C0
:1042C00089C080914F030E94921B80E090E0A0E2A1
:1042D000B1E489839A83AB83BC8369817A818B81C2
:1042E0009C8126E636E646E655E40E941A6FDC011C
:1042F000CB018D839E83AF83B88711E06D817E8172
:104300008F81988520E030E040E85FE30E94CC6D2B
:1043100088230CF010E0112329F081E090E09A87C7
:10432000898746C011E06D817E818F81988520E06C
:104330003FEF4FE757E40E94166F18160CF010E09D
:10434000112361F169817A818B819C8120E030E0C9
:1043500040E251E40E941A6FDC01CB01BC01CD01A7
:104360000E94386EDC01CB019A87898712C080E7F2
:1043700091E09C878B878B859C858C01C801019778
:10438000F1F78C011C870B8789859A8501979A879D
:10439000898789859A85009751F717C06D817E813D
:1043A0008F8198850E94386EDC01CB019A878987BE
:1043B00089859A859E878D878D859E858C01C8010C
:1043C0000197F1F78C011E870D8780914F038F5F56
:1043D00080934F0380914F038A3508F472CF80E0B9
:1043E00090E0AAE7B3E48F87988BA98BBA8B6F858F
:1043F000788989899A8926E636E646E655E40E9458
:104400001A6FDC01CB018B8B9C8BAD8BBE8B11E0CB
:104410006B897C898D899E8920E030E040E85FE3EC
:104420000E94CC6D88230CF010E0112329F081E06C
:1044300090E0988F8F8B46C011E06B897C898D89C5
:104440009E8920E03FEF4FE757E40E94166F181651
:104450000CF010E0112361F16F85788989899A89C0
:1044600020E030E040E251E40E941A6FDC01CB0111
:10447000BC01CD010E94386EDC01CB01988F8F8B7F
:1044800012C080E791E09A8F898F898D9A8D8C0177
:10449000C8010197F1F78C011A8F098F8F89988DC8
:1044A0000197988F8F8B8F89988D009751F717C040
:1044B0006B897C898D899E890E94386EDC01CB01D5
:1044C000988F8F8B8F89988D9C8F8B8F8B8D9C8DE8
:1044D0008C01C8010197F1F78C011C8F0B8F6C9632
:1044E0000FB6F894DEBF0FBECDBFDF91CF911F9105
:1044F0000F9108950F931F93CF93DF93CDB7DEB73E
:104500006C970FB6F894DEBF0FBECDBF10924F036D
:1045100089C080914F030E94E01B80E090E0A0E200
:10452000B1E489839A83AB83BC8369817A818B816F
:104530009C8126E636E646E655E40E941A6FDC01C9
:10454000CB018D839E83AF83B88711E06D817E811F
:104550008F81988520E030E040E85FE30E94CC6DD9
:1045600088230CF010E0112329F081E090E09A8775
:10457000898746C011E06D817E818F81988520E01A
:104580003FEF4FE757E40E94166F18160CF010E04B
:10459000112361F169817A818B819C8120E030E077
:1045A00040E251E40E941A6FDC01CB01BC01CD0155
:1045B0000E94386EDC01CB019A87898712C080E7A0
:1045C00091E09C878B878B859C858C01C801019726
:1045D000F1F78C011C870B8789859A8501979A874B
:1045E000898789859A85009751F717C06D817E81EB
:1045F0008F8198850E94386EDC01CB019A8789876C
:1046000089859A859E878D878D859E858C01C801B9
:104610000197F1F78C011E870D8780914F038F5F03
:1046200080934F0380914F038A3508F472CF80E066
:1046300090E0AAE7B3E48F87988BA98BBA8B6F853C
:10464000788989899A8926E636E646E655E40E9405
:104650001A6FDC01CB018B8B9C8BAD8BBE8B11E079
:104660006B897C898D899E8920E030E040E85FE39A
:104670000E94CC6D88230CF010E0112329F081E01A
:1046800090E0988F8F8B46C011E06B897C898D8973
:104690009E8920E03FEF4FE757E40E94166F1816FF
:1046A0000CF010E0112361F16F85788989899A896E
:1046B00020E030E040E251E40E941A6FDC01CB01BF
:1046C000BC01CD010E94386EDC01CB01988F8F8B2D
:1046D00012C080E791E09A8F898F898D9A8D8C0125
:1046E000C8010197F1F78C011A8F098F8F89988D76
:1046F0000197988F8F8B8F89988D009751F717C0EE
:104700006B897C898D899E890E94386EDC01CB0182
:10471000988F8F8B8F89988D9C8F8B8F8B8D9C8D95
:104720008C01C8010197F1F78C011C8F0B8F6C96DF
:104730000FB6F894DEBF0FBECDBFDF91CF911F91B2
:104740000F9108950F931F93CF93DF93CDB7DEB7EB
:104750006C970FB6F894DEBF0FBECDBF8AE580938D
:104760004F0389C080914F030E94E01B80E090E0DE
:10477000A0E2B1E489839A83AB83BC8369817A81A7
:104780008B819C8126E636E646E655E40E941A6F48
:10479000DC01CB018D839E83AF83B88711E06D81EF
:1047A0007E818F81988520E030E040E85FE30E94C1
:1047B000CC6D88230CF010E0112329F081E090E00B
:1047C0009A87898746C011E06D817E818F819885A7
:1047D00020E03FEF4FE757E40E94166F18160CF0E9
:1047E00010E0112361F169817A818B819C8120E045
:1047F00030E040E251E40E941A6FDC01CB01BC01C1
:10480000CD010E94386EDC01CB019A87898712C0E6
:1048100080E791E09C878B878B859C858C01C80104
:104820000197F1F78C011C870B8789859A85019781
:104830009A87898789859A85009751F717C06D8176
:104840007E818F8198850E94386EDC01CB019A872A
:10485000898789859A859E878D878D859E858C0120
:10486000C8010197F1F78C011E870D8780914F03D6
:10487000815080934F0380914F03882309F072CFBA
:1048800080E090E0AAE7B3E48F87988BA98BBA8B7E
:104890006F85788989899A8926E636E646E655E461
:1048A0000E941A6FDC01CB018B8B9C8BAD8BBE8B76
:1048B00011E06B897C898D899E8920E030E040E899
:1048C0005FE30E94CC6D88230CF010E0112329F0E7
:1048D00081E090E0988F8F8B46C011E06B897C89D6
:1048E0008D899E8920E03FEF4FE757E40E94166FC5
:1048F00018160CF010E0112361F16F857889898911
:104900009A8920E030E040E251E40E941A6FDC0115
:10491000CB01BC01CD010E94386EDC01CB01988F28
:104920008F8B12C080E791E09A8F898F898D9A8D45
:104930008C01C8010197F1F78C011A8F098F8F89BB
:10494000988D0197988F8F8B8F89988D009751F74D
:1049500017C06B897C898D899E890E94386EDC0125
:10496000CB01988F8F8B8F89988D9C8F8B8F8B8DA0
:104970009C8D8C01C8010197F1F78C011C8F0B8F66
:104980006C960FB6F894DEBF0FBECDBFDF91CF910E
:104990001F910F9108950F931F93CF93DF93CDB77E
:1049A000DEB7E8970FB6F894DEBF0FBECDBF80E04C
:1049B00090E0AAEFB3E489839A83AB83BC836981D7
:1049C0007A818B819C8126E636E646E655E40E9494
:1049D0001A6FDC01CB018D839E83AF83B88711E012
:1049E0006D817E818F81988520E030E040E85FE333
:1049F0000E94CC6D88230CF010E0112329F081E097
:104A000090E09A87898746C011E06D817E818F8111
:104A1000988520E03FEF4FE757E40E94166F181685
:104A20000CF010E0112361F169817A818B819C8106
:104A300020E030E040E251E40E941A6FDC01CB013B
:104A4000BC01CD010E94386EDC01CB019A878987B9
:104A500012C080E791E09C878B878B859C858C01B9
:104A6000C8010197F1F78C011C870B8789859A850E
:104A700001979A87898789859A85009751F717C08A
:104A80006D817E818F8198850E94386EDC01CB011B
:104A90009A87898789859A859E878D878D859E854A
:104AA0008C01C8010197F1F78C011E870D8780E00A
:104AB0000E94921B80E090E0AAEFB3E48F87988B6E
:104AC000A98BBA8B6F85788989899A8926E636E61B
:104AD00046E655E40E941A6FDC01CB018B8B9C8B60
:104AE000AD8BBE8B11E06B897C898D899E8920E01E
:104AF00030E040E85FE30E94CC6D88230CF010E0CA
:104B0000112329F081E090E0988F8F8B46C011E04F
:104B10006B897C898D899E8920E03FEF4FE757E4C0
:104B20000E94166F18160CF010E0112361F16F85CA
:104B3000788989899A8920E030E040E251E40E9436
:104B40001A6FDC01CB01BC01CD010E94386EDC0183
:104B5000CB01988F8F8B12C080E791E09A8F898F5D
:104B6000898D9A8D8C01C8010197F1F78C011A8FFC
:104B7000098F8F89988D0197988F8F8B8F89988D4A
:104B8000009751F717C06B897C898D899E890E9497
:104B9000386EDC01CB01988F8F8B8F89988D9C8F1D
:104BA0008B8F8B8D9C8D8C01C8010197F1F78C0147
:104BB0001C8F0B8F80E00E94E01B80E090E0AAEF4A
:104BC000B3E48D8F9E8FAF8FB8A36D8D7E8D8F8D4B
:104BD00098A126E636E646E655E40E941A6FDC0107
:104BE000CB0189A39AA3ABA3BCA311E069A17AA1CD
:104BF0008BA19CA120E030E040E85FE30E94CC6DF7
:104C000088230CF010E0112329F081E090E09EA3AE
:104C10008DA346C011E069A17AA18BA19CA120E0DF
:104C20003FEF4FE757E40E94166F18160CF010E0A4
:104C3000112361F16D8D7E8D8F8D98A120E030E084
:104C400040E251E40E941A6FDC01CB01BC01CD01AE
:104C50000E94386EDC01CB019EA38DA312C080E7B9
:104C600091E098A78FA38FA198A58C01C801019707
:104C7000F1F78C0118A70FA38DA19EA101979EA308
:104C80008DA38DA19EA1009751F717C069A17AA1AC
:104C90008BA19CA10E94386EDC01CB019EA38DA349
:104CA0008DA19EA19AA789A789A59AA58C01C80163
:104CB0000197F1F78C011AA709A780E00E942E1C2A
:104CC00080E090E0AAEFB3E48BA79CA7ADA7BEA7B6
:104CD0006BA57CA58DA59EA526E636E646E655E4A1
:104CE0000E941A6FDC01CB018FA798ABA9ABBAABBE
:104CF00011E06FA578A989A99AA920E030E040E8E1
:104D00005FE30E94CC6D88230CF010E0112329F0A2
:104D100081E090E09CAB8BAB46C011E06FA578A919
:104D200089A99AA920E03FEF4FE757E40E94166F48
:104D300018160CF010E0112361F16BA57CA58DA570
:104D40009EA520E030E040E251E40E941A6FDC01B1
:104D5000CB01BC01CD010E94386EDC01CB019CABC4
:104D60008BAB12C080E791E09EAB8DAB8DA99EA965
:104D70008C01C8010197F1F78C011EAB0DAB8BA91B
:104D80009CA901979CAB8BAB8BA99CA9009751F771
:104D900017C06FA578A989A99AA90E94386EDC016D
:104DA000CB019CAB8BAB8BA99CA998AF8FAB8FA988
:104DB00098AD8C01C8010197F1F78C0118AF0FABCA
:104DC000E8960FB6F894DEBF0FBECDBFDF91CF914E
:104DD0001F910F910895CF93DF93CDB7DEB70E9457
:104DE0007C1C0E948D1C0E949E1CDF91CF91089517
:104DF0000F931F93CF93DF93CDB7DEB76C970FB6AA
:104E0000F894DEBF0FBECDBF8AE50E94921B80E002
:104E100090E0A6E9B3E489839A83AB83BC8369817C
:104E20007A818B819C8126E636E646E655E40E942F
:104E30001A6FDC01CB018D839E83AF83B88711E0AD
:104E40006D817E818F81988520E030E040E85FE3CE
:104E50000E94CC6D88230CF010E0112329F081E032
:104E600090E09A87898746C011E06D817E818F81AD
:104E7000988520E03FEF4FE757E40E94166F181621
:104E80000CF010E0112361F169817A818B819C81A2
:104E900020E030E040E251E40E941A6FDC01CB01D7
:104EA000BC01CD010E94386EDC01CB019A87898755
:104EB00012C080E791E09C878B878B859C858C0155
:104EC000C8010197F1F78C011C870B8789859A85AA
:104ED00001979A87898789859A85009751F717C026
:104EE0006D817E818F8198850E94386EDC01CB01B7
:104EF0009A87898789859A859E878D878D859E85E6
:104F00008C01C8010197F1F78C011E870D8780E0A5
:104F10000E94E01B80E090E0A6E9B3E48F87988BC5
:104F2000A98BBA8B6F85788989899A8926E636E6B6
:104F300046E655E40E941A6FDC01CB018B8B9C8BFB
:104F4000AD8BBE8B11E06B897C898D899E8920E0B9
:104F500030E040E85FE30E94CC6D88230CF010E065
:104F6000112329F081E090E0988F8F8B46C011E0EB
:104F70006B897C898D899E8920E03FEF4FE757E45C
:104F80000E94166F18160CF010E0112361F16F8566
:104F9000788989899A8920E030E040E251E40E94D2
:104FA0001A6FDC01CB01BC01CD010E94386EDC011F
:104FB000CB01988F8F8B12C080E791E09A8F898FF9
:104FC000898D9A8D8C01C8010197F1F78C011A8F98
:104FD000098F8F89988D0197988F8F8B8F89988DE6
:104FE000009751F717C06B897C898D899E890E9433
:104FF000386EDC01CB01988F8F8B8F89988D9C8FB9
:105000008B8F8B8D9C8D8C01C8010197F1F78C01E2
:105010001C8F0B8F6C960FB6F894DEBF0FBECDBF02
:10502000DF91CF911F910F9108950F931F93CF930D
:10503000DF93CDB7DEB7C654D0400FB6F894DEBFCD
:105040000FBECDBF0E94AF1C80E090E0A8E4B3E4A7
:1050500089839A83AB83BC8369817A818B819C81AC
:1050600026E636E646E655E40E941A6FDC01CB01DF
:105070008D839E83AF83B88711E06D817E818F81A0
:10508000988520E030E040E85FE30E94CC6D882303
:105090000CF010E0112329F081E090E09A878987D5
:1050A00046C011E06D817E818F81988520E03FEFC1
:1050B0004FE757E40E94166F18160CF010E011230A
:1050C00061F169817A818B819C8120E030E040E24E
:1050D00051E40E941A6FDC01CB01BC01CD010E949A
:1050E000386EDC01CB019A87898712C080E791E096
:1050F0009C878B878B859C858C01C8010197F1F774
:105100008C011C870B8789859A8501979A878987E7
:1051100089859A85009751F717C06D817E818F81AF
:1051200098850E94386EDC01CB019A878987898532
:105130009A859E878D878D859E858C01F801319794
:10514000F1F78F011E870D870E94001F80E090E01D
:10515000A8E4B3E48F87988BA98BBA8B6F85788985
:1051600089899A8926E636E646E655E40E941A6F52
:10517000DC01CB018B8B9C8BAD8BBE8B11E06B89E3
:105180007C898D899E8920E030E040E85FE30E94C1
:10519000CC6D88230CF010E0112329F081E090E021
:1051A000988F8F8B46C011E06B897C898D899E8991
:1051B00020E03FEF4FE757E40E94166F18160CF0FF
:1051C00010E0112361F16F85788989899A8920E03F
:1051D00030E040E251E40E941A6FDC01CB01BC01D7
:1051E000CD010E94386EDC01CB01988F8F8B12C0ED
:1051F00080E791E09A8F898F898D9A8D8C01C80103
:105200000197F1F78C011A8F098F8F89988D01977B
:10521000988F8F8B8F89988D009751F717C06B8966
:105220007C898D899E890E94386EDC01CB01988F24
:105230008F8B8F89988D9C8F8B8F8B8D9C8D8C0104
:10524000F8013197F1F78F011C8F0B8F0E947A22A2
:1052500080E090E0A8E4B3E48D8F9E8FAF8FB8A379
:105260006D8D7E8D8F8D98A126E636E646E655E457
:105270000E941A6FDC01CB0189A39AA3ABA3BCA344
:1052800011E069A17AA18BA19CA120E030E040E867
:105290005FE30E94CC6D88230CF010E0112329F00D
:1052A00081E090E09EA38DA346C011E069A17AA1A0
:1052B0008BA19CA120E03FEF4FE757E40E94166FBF
:1052C00018160CF010E0112361F16D8D7E8D8F8D1D
:1052D00098A120E030E040E251E40E941A6FDC0126
:1052E000CB01BC01CD010E94386EDC01CB019EA335
:1052F0008DA312C080E791E098A78FA38FA198A5F6
:105300008C01C8010197F1F78C0118A70FA38DA19B
:105310009EA101979EA38DA38DA19EA1009751F7F9
:1053200017C069A17AA18BA19CA10E94386EDC01F3
:10533000CB019EA38DA38DA19EA19AA789A789A524
:105340009AA58C01F8013197F1F78F011AA709A7E7
:105350000E94D71D80E090E0A8E4B3E48BA79CA74F
:10536000ADA7BEA76BA57CA58DA59EA526E636E6B6
:1053700046E655E40E941A6FDC01CB018FA798AB7B
:10538000A9ABBAAB11E06FA578A989A99AA920E0C9
:1053900030E040E85FE30E94CC6D88230CF010E021
:1053A000112329F081E090E09CAB8BAB46C011E06B
:1053B0006FA578A989A99AA920E03FEF4FE757E4A4
:1053C0000E94166F18160CF010E0112361F16BA506
:1053D0007CA58DA59EA520E030E040E251E40E942E
:1053E0001A6FDC01CB01BC01CD010E94386EDC01DB
:1053F000CB019CAB8BAB12C080E791E09EAB8DAB39
:105400008DA99EA98C01C8010197F1F78C011EABF3
:105410000DAB8BA99CA901979CAB8BAB8BA99CA9CD
:10542000009751F717C06FA578A989A99AA90E947A
:10543000386EDC01CB019CAB8BAB8BA99CA998AFE0
:105440008FAB8FA998AD8C01F8013197F1F78F01DF
:1054500018AF0FAB0E94A22380E090E0A8E4B3E471
:1054600089AF9AAFABAFBCAF69AD7AAD8BAD9CAD38
:1054700026E636E646E655E40E941A6FDC01CB01CB
:105480009E01235C3F4FF90180839183A283B38304
:1054900011E0CE01CD96FC01608171818281938102
:1054A00020E030E040E85FE30E94CC6D88230CF000
:1054B00010E0112349F0CE018F5B9F4F21E030E0D7
:1054C000FC01318320836EC011E0CE01CD96FC013A
:1054D000608171818281938120E03FEF4FE757E443
:1054E0000E94166F18160CF010E0112309F449C041
:1054F00069AD7AAD8BAD9CAD20E030E040E251E487
:105500000E941A6FDC01CB018E010F5B1F4FBC01A3
:10551000CD010E94386EDC01CB01F80191838083BC
:1055200027C0CE018D5B9F4F20E731E0FC01318326
:105530002083CE018D5B9F4FFC01808191818C0186
:10554000C8010197F1F78C01CE018D5B9F4FFC01E3
:1055500011830083CE018F5B9F4F9E012F5B3F4FD6
:10556000F9012081318121503040FC0131832083B9
:10557000CE018F5B9F4FFC0180819181009789F65E
:105580002EC08E010F5B1F4FCE01CD96FC016081B6
:105590007181828193810E94386EDC01CB01F80118
:1055A00091838083CE018B5B9F4F9E012F5B3F4F8A
:1055B000F90120813181FC0131832083CE018B5B95
:1055C0009F4FFC01808191818C01C8010197F1F707
:1055D0008C01CE018B5B9F4FFC0111830083CA5B62
:1055E000DF4F0FB6F894DEBF0FBECDBFDF91CF9176
:1055F0001F910F9108950F931F93CF93DF93CDB712
:10560000DEB7C654D0400FB6F894DEBF0FBECDBF94
:105610000E94AF1C80E090E0A8E4B3E489839A8301
:10562000AB83BC8369817A818B819C8126E636E6D7
:1056300046E655E40E941A6FDC01CB018D839E8300
:10564000AF83B88711E06D817E818F81988520E0DE
:1056500030E040E85FE30E94CC6D88230CF010E05E
:10566000112329F081E090E09A87898746C011E0F4
:105670006D817E818F81988520E03FEF4FE757E471
:105680000E94166F18160CF010E0112361F1698169
:105690007A818B819C8120E030E040E251E40E94DD
:1056A0001A6FDC01CB01BC01CD010E94386EDC0118
:1056B000CB019A87898712C080E791E09C878B870E
:1056C0008B859C858C01C8010197F1F78C011C87A3
:1056D0000B8789859A8501979A87898789859A8515
:1056E000009751F717C06D817E818F8198850E9448
:1056F000386EDC01CB019A87898789859A859E87D8
:105700008D878D859E858C01F8013197F1F78F018A
:105710001E870D870E94292080E090E0A8E4B3E472
:105720008F87988BA98BBA8B6F85788989899A899D
:1057300026E636E646E655E40E941A6FDC01CB0108
:105740008B8B9C8BAD8BBE8B11E06B897C898D899B
:105750009E8920E030E040E85FE30E94CC6D882322
:105760000CF010E0112329F081E090E0988F8F8BEE
:1057700046C011E06B897C898D899E8920E03FEFCE
:105780004FE757E40E94166F18160CF010E0112333
:1057900061F16F85788989899A8920E030E040E25B
:1057A00051E40E941A6FDC01CB01BC01CD010E94C3
:1057B000386EDC01CB01988F8F8B12C080E791E0AF
:1057C0009A8F898F898D9A8D8C01C8010197F1F785
:1057D0008C011A8F098F8F89988D0197988F8F8BE5
:1057E0008F89988D009751F717C06B897C898D89B7
:1057F0009E890E94386EDC01CB01988F8F8B8F8938
:10580000988D9C8F8B8F8B8D9C8D8C01F80131979F
:10581000F1F78F011C8F0B8F0E947A2280E090E0BD
:10582000A8E4B3E48D8F9E8FAF8FB8A36D8D7E8D6E
:105830008F8D98A126E636E646E655E40E941A6F5B
:10584000DC01CB0189A39AA3ABA3BCA311E069A19E
:105850007AA18BA19CA120E030E040E85FE30E94A8
:10586000CC6D88230CF010E0112329F081E090E04A
:105870009EA38DA346C011E069A17AA18BA19CA132
:1058800020E03FEF4FE757E40E94166F18160CF028
:1058900010E0112361F16D8D7E8D8F8D98A120E038
:1058A00030E040E251E40E941A6FDC01CB01BC0100
:1058B000CD010E94386EDC01CB019EA38DA312C0E6
:1058C00080E791E098A78FA38FA198A58C01C801CC
:1058D0000197F1F78C0118A70FA38DA19EA1019745
:1058E0009EA38DA38DA19EA1009751F717C069A11A
:1058F0007AA18BA19CA10E94386EDC01CB019EA3F2
:105900008DA38DA19EA19AA789A789A59AA58C018F
:10591000F8013197F1F78F011AA709A70E94D71D47
:1059200080E090E0A8E4B3E48BA79CA7ADA7BEA756
:105930006BA57CA58DA59EA526E636E646E655E434
:105940000E941A6FDC01CB018FA798ABA9ABBAAB51
:1059500011E06FA578A989A99AA920E030E040E874
:105960005FE30E94CC6D88230CF010E0112329F036
:1059700081E090E09CAB8BAB46C011E06FA578A9AD
:1059800089A99AA920E03FEF4FE757E40E94166FDC
:1059900018160CF010E0112361F16BA57CA58DA504
:1059A0009EA520E030E040E251E40E941A6FDC0145
:1059B000CB01BC01CD010E94386EDC01CB019CAB58
:1059C0008BAB12C080E791E09EAB8DAB8DA99EA9F9
:1059D0008C01C8010197F1F78C011EAB0DAB8BA9AF
:1059E0009CA901979CAB8BAB8BA99CA9009751F705
:1059F00017C06FA578A989A99AA90E94386EDC0101
:105A0000CB019CAB8BAB8BA99CA998AF8FAB8FA91B
:105A100098AD8C01F8013197F1F78F0118AF0FABFA
:105A20000E94A22380E090E0A8E4B3E489AF9AAF9B
:105A3000ABAFBCAF69AD7AAD8BAD9CAD26E636E6BB
:105A400046E655E40E941A6FDC01CB019E01235CFF
:105A50003F4FF90180839183A283B38311E0CE018C
:105A6000CD96FC01608171818281938120E030E0DC
:105A700040E85FE30E94CC6D88230CF010E0112316
:105A800049F0CE018F5B9F4F21E030E0FC01318374
:105A900020836EC011E0CE01CD96FC016081718142
:105AA0008281938120E03FEF4FE757E40E94166F19
:105AB00018160CF010E0112309F449C069AD7AAD55
:105AC0008BAD9CAD20E030E040E251E40E941A6FC3
:105AD000DC01CB018E010F5B1F4FBC01CD010E9489
